:1000000012C02CC02BC02AC029C028C027C026C0BF
:1000100081C124C023C022C021C020C01FC01EC077
:1000200057C11CC01BC011241FBECFE5D4E0DEBFEA
:10003000CDBF11E0A0E6B0E0E8EEF9E002C0059027
:100040000D92A031B107D9F721E0A0E1B1E001C0E4
:100050001D92A434B207E1F736D4C4C4D1CF0097BF
:1000600031F0A0EDB7E01197F1F70197D1F70895BE
:100070001F93CF93DF93C82F162F8111C0E2812FDA
:1000800082958F708C2B88BBC49AD5E08D2F8A9572
:10009000F1F7C49882E090E0E2DF1F70C12BC8BB8B
:1000A000C49ADA95F1F7C49882E090E0D8DFDF9146
:1000B000CF911F91089518BA8FEF87BB82E390E02C
:1000C000CEDF63E380E0D4DF62E380E0D1DF68E28B
:1000D00080E0CEDF68E080E0CBDF6CE080E0C8DF6E
:1000E00061E080E0C5DF66E080E0C2CF089561E0B6
:1000F00080E0BECF0895FF920F931F93CF93DF93BD
:10010000D82FF92EC62F603138F460E86C0F80E0EC
:10011000AFDF0D2F1F2D11C06032A0F460EB6C0F0C
:1001200080E0A6DFF6CFC03268F481E0A1DFCF5FC8
:10013000C03119F460EC80E09BDFF80161918F0120
:100140006111F1CFDF91CF911F910F91FF90089531
:100150006F927F928F929F92AF92BF92CF92DF92D7
:10016000EF92FF920F931F93CF93DF933C0120E018
:1001700031E080E010E090E06894CC24C5F80F2EC8
:10018000F0E3FF2EF02DEE24E3940F2EFEE2DF2E9F
:10019000F02D112309F479C0243029F0273021F003
:1001A0002130D9F48F5F8F5F8F5FF301E90FF11D6D
:1001B000D0829F5FA22FB0E0FD01EE0FFF1FEE0F78
:1001C000FF1FE05AFF4F80809180A280B3804815C6
:1001D00059056A057B0598F027C0A22FB0E0FD0104
:1001E000EE0FFF1FEE0FFF1FE05AFF4F8080918040
:1001F000A280B380481559056A057B05A8F4F30170
:10020000E90FF11DF0829F5F38C0263028F0F3011E
:10021000E90FF11DC0829F5F263079F5F301E90FE8
:10022000F11DC0829F5F2BC0F301E90FF11DF08229
:100230008D01000F111F000F111F005A1F4FE80101
:1002400088809980AA80BB80481559056A057B057E
:1002500090F0D80110811F5F10838D909D90AD901C
:10026000BC901397481959096A097B094815590523
:100270006A057B0578F79F5F1E2D3A30D0F43F5F0B
:100280002F5F953008F485CF14C0A22FB0E0FD0198
:10029000EE0FFF1FEE0FFF1FE05AFF4F808091808F
:1002A000A280B380481559056A057B0508F4ADCFD7
:1002B000BBCFDF91CF911F910F91FF90EF90DF9017
:1002C000CF90BF90AF909F908F907F906F90089548
:1002D0001F920F920FB60F9211248F9380912101DC
:1002E000813041F48EBD8091200187B982E08093F6
:1002F00021010AC080912101823031F4459B04C064
:100300001EBC83E0809321018F910F900FBE0F9050
:100310001F9018951F920F920FB60F9211248F9372
:100320009F93809122019091230101969093230144
:10033000809322019F918F910F900FBE0F901F907D
:10034000189581E090E030D3833499F482E090E016
:100350002BD3843471F440E150E063E070E080E13D
:1003600091E012D348E050E063E170E088E890E06B
:100370000BC3089563E481E090E027D364E482E056
:1003800090E023D340E150E063E070E080E191E051
:1003900013D348E050E063E170E088E890E00CC3DC
:1003A0000895CF93DF931092210181E087B995984A
:1003B0008D9A8E9881E090E052DE829B8CC0459BA6
:1003C00005C08E9A8AE090E04ADEF3CF8E9A84E6EA
:1003D00090E045DE1EBC1DBC1CBC10922301109297
:1003E00022018D98959881E08093210180919C0055
:1003F00080FF04C083E08093200103C082E08093EB
:10040000200194988E9880919C0082FD07C028C09E
:1004100081E090E024DE829903C061C0C0E0D0E0BA
:1004200080912101813031F42196C43F81E0D807C9
:1004300079F703C0C43FD14068F08E9A84E690E01B
:100440000EDE8E98959A8D9A80919C0082608093A2
:100450009C0011C080919C008D7F80939C000BC0FC
:1004600081FF09C0959A8D9A06C081E090E0F7DD82
:10047000829903C038C0C0E1D7E280912101833066
:1004800011F0219791F78D9895988E9A949A809172
:100490002101833031F080919C00886080939C0022
:1004A00005C080919C00877F80939C001092210161
:1004B00060912201709123012CB53DB5CB01A0E0E4
:1004C000B0E0DC0199278827BC01CD01620F731FC2
:1004D000811D911D0BC060E070E0CB0107C060E0A2
:1004E00070E0CB0103C060E070E0CB01DF91CF9101
:1004F0000895CF92DF92EF92FF920F931F936B01BB
:100500007C0180919C0082FF05C060E082EA90E05F
:10051000F2DD04C060E088EA90E0EDDD80919C00AF
:1005200081FF05C060E18EEA90E0E5DD04C060E196
:1005300084EB90E0E0DD80919C0083FF11C0E4E259
:10054000F1E080E280838183828395E4938392E764
:10055000948395832FE626839783808711866CC0CA
:10056000837090E0FC01EE0FFF1FEE0FFF1FE05FB6
:10057000FE4F4081518162817381C416D506E60623
:10058000F70660F42DE2209324018A019B010C19E7
:100590001D092E093F096801790107C020E2209357
:1005A0002401C41AD50AE60AF70A880F991FFC012C
:1005B000E857FF4F80819181662755274427C89EC1
:1005C000712DC99E700D411D561FD89E700D411D85
:1005D000561FD99E400D511D661FE89E400D511DAE
:1005E00008F463957727E99E500D611D08F4739513
:1005F000F89E500D611D08F47395F99E600D711DF4
:10060000112485E291E0A4DD90919C0091FD8F5F23
:10061000A4E2B1E090E216969C931697E82FF0E0E2
:10062000E356FF4F808117968C93179786E41896B0
:100630008C93189719961C9280919C0080FD02C0A3
:1006400067E101C067E084E291E055DD1F910F9101
:10065000FF90EF90DF90CF900895CF93C0919C00D2
:1006600010929C009EDE9DDEE0919C00F0E0EE0F7B
:10067000FF1FEE0FFF1FE05FFE4F608371838283D9
:10068000938381E080939C008CDE8BDEE0919C0064
:10069000F0E0EE0FFF1FEE0FFF1FE05FFE4F6083E5
:1006A000718382839383C0939C00CF9108958F922E
:1006B0009F92AF92BF92CF92DF92EF92FF921F93E1
:1006C000CF93DF9310919C0010929C006ADE2091E2
:1006D0009C0030E0E901CC0FDD1FC857DF4F220F2F
:1006E000331F220F331FF901E05FFE4FC080D1801E
:1006F000E280F380DC01CB018C199D09AE09BF09B2
:10070000292F3A2F4B2F55270F2EC12CF0E4DF2E27
:10071000F2E4EF2EFFE0FF2EF02DC701B60112D15B
:100720002F5F3F4F3983288381E080939C0039DE1F
:1007300020919C0030E0E901CC0FDD1FC857DF4F4E
:10074000220F331F220F331FF901E05FFE4F80801D
:100750009180A280B380DC01CB0188199909AA0994
:10076000BB09292F3A2F4B2F5527C701B601EAD0D5
:100770002F5F3F4F3983288382E080939C0011DEF6
:1007800020919C0030E0E901CC0FDD1FC857DF4FFE
:10079000220F331F220F331FF901E05FFE4FC0808D
:1007A000D180E280F3809B01AC012C193D094E09F8
:1007B0005F090F2EC12CD12CF8EEEF2EF3E0FF2EA7
:1007C000F02DC701B601BED02F5F3F4F398328837C
:1007D00083E080939C00E5DD20919C0030E0E901FE
:1007E000CC0FDD1FC857DF4F220F331F220F331FDF
:1007F000F901E05FFE4F80809180A280B3809B0171
:10080000AC01281939094A095B09C701B6019AD018
:100810002F5F3F4F3983288310939C00DF91CF9146
:100820001F91FF90EF90DF90CF90BF90AF909F907F
:100830008F9008950F931F93CF9359DC00E910E038
:10084000C0E060E0F801819191918F0154DC80E279
:1008500093E005DC829904C0CF5FC63091F702C0F7
:10086000C63039F444DC829BFECF8AE090E0F7DBAF
:1008700015C03DDC88EC90E0F2DBEC2FF0E0EE0FF1
:10088000FF1FE057FF4F60E08081918134DC80E9F9
:1008900091E0E5DB2CDC88EC90E0E1DB8C2FCF9164
:1008A0001F910F91089580E181BB9698929A1FBC89
:1008B0001EBC84E089BF8BE088B981E087B980B72E
:1008C000886080BF0895EFDFF6DB3BDD7894949A73
:1008D00084E080939C00C1E080919C008C278093F1
:1008E0009C005FDD82992CC0949A8D9895988E9A81
:1008F000A1DF8230C1F02CF4882349F0813069F007
:10090000EBCF8430C9F0B4F08530C1F0E5CF8091F1
:100910009C00846080939C00DFCF80919C00897F45
:1009200080939C00D9CF80919C008B7F82608093C4
:100930009C00D2CF92DED0CFBADECECF1BDDCCCFA3
:10094000D8DDCACFA1E21A2EAA1BBB1BFD010DC028
:10095000AA1FBB1FEE1FFF1FA217B307E407F5076F
:1009600020F0A21BB30BE40BF50B661F771F881F4B
:10097000991F1A9469F760957095809590959B01E1
:10098000AC01BD01CF010895DC01CB01FC01E1996F
:10099000FECF06C0FFBBEEBBE09A31960DB20D92C2
:1009A00041505040B8F70895E199FECF9FBB8EBBF0
:1009B000E09A99278DB30895DC01CB0102C02D91F7
:1009C00005D041505040D8F70895262FE199FECF29
:1009D0009FBB8EBB2DBB0FB6F894E29AE19A0FBE77
:0809E00001960895F894FFCF81
:1009E80000CA9A3B00E1F5058096980040420F0046
:1009F800A086010010270000E80300006400000042
:100A08000A00000001000000B6535C24DF4BF5200B
:100A1800BA00C600D200DE00EE00FE0004706E755B
:100A28006D204175746F2000466F72636500206801
:100A380069676800206C6F77200052616E67653ABD
:100A4800204175746F0052616E67653A204C6F776C
:100A5800200052616E67653A204869676800436103
:100A68006C6962726174653A205A65726F004361FD
:100A78006C6962726174653A203120754600536171
:100A880076652063616C6962726174696F6E0000DB
:00000001FF
